:10000000020380120351750C05AB12AA117D017F0A
:10001000011203031201768F13E513B401150512C3
:10002000E51270020511750C05FBAA117D017F0117
:10003000120303E513B40216E5121512700215112E
:10004000750C05AB12AA117D017F01120303E513A4
:1000500064037040FCAD12FF1202637F057E001244
:1000600002E6E511FD7C007F011202637F057E0040
:100070001202E67BFF7A0379207D017F021202875C
:100080007FE87E031202E67BFF7A0379297D017FF8
:1000900002120287E51364046003020014FF1202D7
:1000A0000A7511008F127F0112020AEFFEEE421153
:1000B000750C05AB12AA117D017F011203037BFFB2
:1000C0007A0379327D017F021202877FE87E031274
:1000D00002E67BFF7A0379297D017F021202870203
:1000E0000014BB010CE58229F582E5833AF583E033
:1000F000225006E92582F8E622BBFE06E92582F8B1
:10010000E222E58229F582E5833AF583E49322EF42
:100110008DF0A4A8F0CF8CF0A428CE8DF0A42EFEF4
:1001200022BC000BBE0029EF8DF084FFADF022E46D
:10013000CCF875F008EF2FFFEE33FEEC33FCEE9DAC
:10014000EC984005FCEE9DFE0FD5F0E9E4CEFD22D3
:10015000EDF8F5F0EE8420D21CFEADF075F008EF5E
:100160002FFFED33FD4007985006D5F0F222C398DB
:10017000FD0FD5F0EA22E4F50820B1137F14FE123A
:1001800002E630B1FD7F147E001202E67508012000
:10019000B0147F147E001202E630B0FD7F147E00A2
:1001A0001202E675080220B2147F147E001202E6E5
:1001B00030B2FD7F147E001202E675080320B314EE
:1001C0007F147E001202E630B3FD7F147E0012021F
:1001D000E6750804AF08227F0AEA24FFFDE434FF35
:1001E000FC7E008E0D8F0E8C0F8D107F017E00E443
:1001F000FBEBC39510E50F6480F8748098500AAC4F
:100200000DAD0E12010F0B80E8228F081203967FAE
:10021000A012023A120374AF0812023A12037412C7
:1002200003967FA112023A1203741202AA8F09D216
:100230000012039F1203A8AF0922AD07E4FB7480EC
:100240007E00A803088006CEA2E713CE13D8F8FFDD
:10025000EDF582EF558224FF92A0D2A1C2A10BBB83
:1002600008DC228F088C098D0A1203967FA01202E7
:100270003A120374AF0812023A120374AF0A120260
:100280003A1203740203A88B088A09890A12033BF5
:10029000E4FDAB08AA09A90A8D827583001200E269
:1002A000FF60061202DC0D80E922E4FFD2A0FED23C
:1002B000A130A00D7480A806088002C313D8FC42A8
:1002C00007C2A10EBE08E822CFCDCFCECCCE120100
:1002D000217C007D0A120121ED2430FFD2A61203F9
:1002E00065C2A702036BD3EF9400EE940040137530
:1002F0000902750AEFD50AFDD509FAEF1F70E71E4E
:1003000080E4228A0A8B0B12033BAA0CEAD39400E6
:10031000400D1201D7AC0AAD0B1202C81A80ED22B3
:100320005772697465204F4B002020202020202028
:10033000200052656164204F4B2000AE07BE0104CF
:10034000ED148006BE0209ED243F4480FF12038CA9
:10035000227F3812038C7F0C12038C7F0612038CD1
:100360007F0102038CC2A58F80D2A77F027EEFDEC1
:10037000FEDFFC22D2A0D2A1A2A0E433FFC2A122C0
:10038000787FE4F6D8FD758120020003C2A612032F
:1003900065C2A702036BD2A0D2A1C2A0C2A122A2B1
:0F03A0000092A0D2A1C2A122C2A0D2A1D2A022BB
:00000001FF
