:10000000020176BB010CE58229F582E5833AF5838E
:10001000E0225006E92582F8E622BBFE06E92582A9
:10002000F8E222E58229F582E5833AF583E493221A
:10003000EF8DF0A4A8F0CF8CF0A428CE8DF0A42EE4
:10004000FE22BC000BBE0029EF8DF084FFADF02234
:10005000E4CCF875F008EF2FFFEE33FEEC33FCEE46
:100060009DEC984005FCEE9DFE0FD5F0E9E4CEFD39
:1000700022EDF8F5F0EE8420D21CFEADF075F0080C
:10008000EF2FFFED33FD4007985006D5F0F222C365
:1000900098FD0FD5F0EA22AD07E4FB74807E00A83E
:1000A00003088006CEA2E713CE13D8F8FFEDF58241
:1000B000EF558224FF92A0D2A1C2A10BBB08DC2283
:1000C0008B088A09890A120131E4FDAB08AA09A943
:1000D0000A8D82758300120003FF60061200F70D7F
:1000E00080E922CFCDCFCECCCE1200427C007D0A5B
:1000F000120042ED2430FFD2A612015BC2A702011A
:10010000611201477BFF7A0179957D017F01120021
:10011000C0E4FDFCFF12011A80FE8F088C098D0AD5
:1001200012018C7FA012009712016AEF7002F5A0F5
:1001300022AE07BE0104ED148006BE0209ED243F85
:100140004480FF120182227F381201827F0C12014B
:10015000827F061201827F01020182C2A58F80D2B6
:10016000A77F027EEFDEFEDFFC22D2A0D2A1A2A0FA
:10017000E433FFC2A122787FE4F6D8FD75810A023C
:100180000101C2A612015BC2A7020161D2A0D2A1E5
:0B019000C2A0C2A12248656C6C6F0089
:00000001FF
