:1000000002025CBB010CE58229F582E5833AF583A7
:10001000E0225006E92582F8E622BBFE06E92582A9
:10002000F8E222E58229F582E5833AF583E493221A
:10003000EF8DF0A4A8F0CF8CF0A428CE8DF0A42EE4
:10004000FE22BC000BBE0029EF8DF084FFADF02234
:10005000E4CCF875F008EF2FFFEE33FEEC33FCEE46
:100060009DEC984005FCEE9DFE0FD5F0E9E4CEFD39
:1000700022EDF8F5F0EE8420D21CFEADF075F0080C
:10008000EF2FFFED33FD4007985006D5F0F222C365
:1000900098FD0FD5F0EA2212022D7BFF7A02798BB0
:1000A0007D017F0112017E7D067C007F0112015AD5
:1000B0007F057E001201DD7F011201018F11EFFB30
:1000C0007A00750C037D017F021201FA80FE7F0A1F
:1000D000EA24FFFDE434FFFC7E008E0D8F0E8C0FB2
:1000E0008D107F017E00E4FBEBC39510E50F64806B
:1000F000F8748098500AAC0DAD0E1200300B80E8F9
:10010000228F081202727FA0120131120250AF0832
:100110001201311202501202727FA1120131120239
:10012000501201A18F09D20012027B120284AF0982
:1001300022AD07E4FB74807E00A803088006CEA2EF
:10014000E713CE13D8F8FFEDF582EF558224FF9226
:10015000A0D2A1C2A10BBB08DC228F088C098D0A9A
:100160001202727FA0120131120250AF0812013147
:10017000120250AF0A1201311202500202848B089F
:100180008A09890A120217E4FDAB08AA09A90A8D97
:1001900082758300120003FF60061201D30D80E90F
:1001A00022E4FFD2A0FED2A130A00D7480A80608E0
:1001B0008002C313D8FC4207C2A10EBE08E822CFBA
:1001C000CDCFCECCCE1200427C007D0A120042ED93
:1001D0002430FFD2A6120241C2A7020247D3EF94F5
:1001E00000EE940040137508027509EFD509FDD59E
:1001F00008FAEF1F70E71E80E4228A0A8B0B1202B6
:1002000017AA0CEAD39400400D1200CEAC0AAD0B35
:100210001201BF1A80ED22AE07BE0104ED14800664
:10022000BE0209ED243F4480FF120268227F38128B
:1002300002687F0C1202687F061202687F010202C8
:1002400068C2A58F80D2A77F027EEFDEFEDFFC2290
:10025000D2A0D2A1A2A0E433FFC2A122787FE4F60B
:10026000D8FD758120020097C2A6120241C2A702E2
:100270000247D2A0D2A1C2A0C2A122A20092A0D2C3
:10028000A1C2A122C2A0D2A1D2A02248656C6C6FEB
:01029000006D
:00000001FF
