:100000000204020202ABE86480F8E933E8336011CD
:100010000460F0ED33EC337009E8FCE9FDEAFEEB37
:10002000FF220460DED3EB9FEA9EE99DE8C2E78CE5
:10003000F0C2F795F0400CE8CCF8E9CDF9EACEFA39
:10004000EBCFFB12027685D0F05804700320D5B3B5
:10005000E80470075002B2D50202B592D5EC0460F4
:10006000F7E4CCC0E0C398F8603B94186008400DFA
:10007000D0E0FB02028DE4FBFAC9FC8028E830E402
:1000800006E4C9FBE4CAFCE830E305E4C9CACBFCDA
:10009000E854076010F8C3E913F9EA13FAEB13FB0D
:1000A000EC13FCD8F130F52FC3E49CFCEF9BFFEE82
:1000B0009AFEED99FDD0E0FBEF4E4D4C701222DB25
:1000C000030202B2EC2CFCEF33FFEE33FEED33FD06
:1000D000ED30E7EB02028DEF2BFFEE3AFEED39FD3E
:1000E000D0E0FB50130BBB00030202B5ED13FDEE95
:1000F00013FEEF13FFEC13FC02028DEC4D6011E8D0
:10010000497017ED33EC3304600DE4FCFFFEFD2273
:10011000E933E8330470F80202AB12027658046047
:1001200009E4CC248150062850090202B528400376
:100130000202B2C0E0EB4A7044B98006D0E0FB0294
:1001400002A1EF4E701CBD8008EBFFEAFEE9FD80C6
:10015000EBE98DF0A4FEE5F00201E4E9CDF9EAFE59
:10016000EBFFEF89F0A4FCE5F0CE89F0A42EFFE4CC
:1001700035F0CD89F0A42DFEE435F08067EF4E70A8
:1001800005BD80D780C3EF8BF0A4ACF0EE8BF0A45C
:100190002CFCE435F0F8EF8AF0A42CE5F038FCE410
:1001A00033CB8DF0A42CFCE5F03BF8EE8AF0A42CC8
:1001B000FCE5F038F8E433CF89F0A42CFCE5F03806
:1001C000CF3400CE89F0A42FFFE5F03EFEE433C922
:1001D0008DF0A42EFEE5F039CD8AF0A42FFFE5F0D6
:1001E0003EFEE43DFD33D0E0FB50070BBB000F02A9
:1001F00002B5EC2CFCEF33FFEE33FEED33FD0202D3
:100200008D75F020800E75F010800575F0087D006A
:100210007E007F003392D530D503120354EC334077
:1002200010EF33FFEE33FEED33FDEC33FCD5F0ED94
:1002300022E5F0247EA2D513CC92E7CDCEFF22EDAD
:10024000D2E7CD33EC3392D524814006E4FFFEFDA6
:10025000FC22FCE4CFCECDCC24E0501174FF80ED25
:10026000C3CC13CCCD13CDCE13CECF13CF0470F0AF
:1002700030D5DE020354E9D2E7C933E833F892D52A
:10028000EDD2E7CD33EC33FC5002B2D522EC30E7AF
:10029000100FBF000C0EBE00080DBD00040BEB607C
:1002A00014A2D5EB13FCED92E7FD2274FFFCFDFEDA
:1002B000FF22E480F8A2D574FF13FC7D80E480EF78
:1002C000BB010CE58229F582E5833AF583E02250F3
:1002D00006E92582F8E622BBFE06E92582F8E2223D
:1002E000E58229F582E5833AF583E49322EF8DF0E8
:1002F000A4A8F0CF8CF0A428CE8DF0A42EFE22BCB2
:10030000000BBE0029EF8DF084FFADF022E4CCF8A5
:1003100075F008EF2FFFEE33FEEC33FCEE9DEC980A
:100320004005FCEE9DFE0FD5F0E9E4CEFD22EDF890
:10033000F5F0EE8420D21CFEADF075F008EF2FFF33
:10034000ED33FD4007985006D5F0F222C398FD0F1B
:10035000D5F0EA22C3E49FFFE49EFEE49DFDE49C09
:10036000FC2212068C12062A8E088F09AC08AD09F1
:10037000E41202067B0A7AD779A3783C1200FB7B51
:10038000337A93798878C312000A8F0F8E0E8D0D01
:100390008C0C1206448E0A8F0BAC0AAD0BE41202D1
:1003A000067B0A7AD779A3783C1200FB7B337A93D9
:1003B000798878C312000A8F138E128D118C107BEE
:1003C000007A0079417D057F0112056EAF0FAE0EF8
:1003D000AD0DAC0C12023FAB07AA067518057D01E6
:1003E0007F011205F0AF13AE12AD11AC1012023F37
:1003F000AB07AA067518057D017F021205F0E4FE21
:10040000FF22787FE4F6D8FD7581240204490203B7
:1004100062E493A3F8E493A34003F68001F208DFBB
:10042000F48029E493A3F85407240CC8C333C454BC
:100430000F4420C8834004F456800146F6DFE48070
:100440000B01020408102040809006B9E47E01935D
:1004500060BCA3FF543F30E509541FFEE493A36042
:10046000010ECF54C025E060A840B8E493A3FAE49D
:1004700093A3F8E493A3C8C582C8CAC583CAF0A3EE
:10048000C8C582C8CAC583CADFE9DEE780BE1524B5
:10049000A824A607152415241524A824087601E508
:1004A000242403F8E6A8240808F6A824E4F6A924DE
:1004B000C3E7648094885025A8240808E630E7053F
:1004C0007521018003E4F5211205B2A8240808C0B3
:1004D00000E6FF25E0D000F6A8240680D1120591A1
:1004E000E520B40114120523A82408A900E7600937
:1004F000A824081612060D80A6E5242404F524225B
:1005000012048E12060D7F0112048EE4F5211206EC
:100510005E8F1EE4F52112065E8F1D752101120605
:100520005E8F1FC2A10000000000C2A000000000FA
:1005300000D2A10000000000D2A0227F0AEA24FF1E
:10054000FDE434FFFC7E008E198F1A8C1B8D1C7FFE
:10055000017E00E4FBEBC3951CE51B6480F874800E
:1005600098500AAC19AD1A1202ED0B80E8228B14D8
:100570008A158916120676E4FDAB14AA15A9168D04
:10058000827583001202C0FF60061205E60D80E945
:1005900022D2A0752001D2A10000000000000000BE
:1005A000A2A0E433F52000C2A1000000000000007A
:1005B0000022E5217004C2A08002D2A000D2A100D6
:1005C00000000000000000C2A100000000000000C8
:1005D0000022CFCDCFCECCCE1202FF7C007D0A12FE
:1005E00002FFED2430FFD2A61206A0C2A70206A683
:1005F0008A168B17120676AA18EAD39400400D12B9
:10060000053BAC16AD171205D21A80ED22D2A00020
:1006100000000000D2A10000000000C2A000000005
:100620000000C2A100000000002212060D7F00128F
:10063000048E7F07120500E51DFE7C00E4251EFFE9
:10064000EC3EFE2212060D7F0012048E7F0612057C
:1006500000E51DFE7C00E4251EFFEC3EFE22E4FFCB
:10066000FEEF25E0FF120591E520B401010F0EBE5B
:1006700008EF1205B222AE07BE0104ED148006BEDB
:100680000209ED243F4480FF1206AF227F38120694
:10069000AF7F0C1206AF7F061206AF7F010206AFD6
:1006A000C2A58F80D2A77F027EEFDEFEDFFC22C2D2
:1006B000A61206A0C2A70206A60121010120010080
:00000001FF
