:100000000203EE0202ABE86480F8E933E8336011E2
:100010000460F0ED33EC337009E8FCE9FDEAFEEB37
:10002000FF220460DED3EB9FEA9EE99DE8C2E78CE5
:10003000F0C2F795F0400CE8CCF8E9CDF9EACEFA39
:10004000EBCFFB12027685D0F05804700320D5B3B5
:10005000E80470075002B2D50202B592D5EC0460F4
:10006000F7E4CCC0E0C398F8603B94186008400DFA
:10007000D0E0FB02028DE4FBFAC9FC8028E830E402
:1000800006E4C9FBE4CAFCE830E305E4C9CACBFCDA
:10009000E854076010F8C3E913F9EA13FAEB13FB0D
:1000A000EC13FCD8F130F52FC3E49CFCEF9BFFEE82
:1000B0009AFEED99FDD0E0FBEF4E4D4C701222DB25
:1000C000030202B2EC2CFCEF33FFEE33FEED33FD06
:1000D000ED30E7EB02028DEF2BFFEE3AFEED39FD3E
:1000E000D0E0FB50130BBB00030202B5ED13FDEE95
:1000F00013FEEF13FFEC13FC02028DEC4D6011E8D0
:10010000497017ED33EC3304600DE4FCFFFEFD2273
:10011000E933E8330470F80202AB12027658046047
:1001200009E4CC248150062850090202B528400376
:100130000202B2C0E0EB4A7044B98006D0E0FB0294
:1001400002A1EF4E701CBD8008EBFFEAFEE9FD80C6
:10015000EBE98DF0A4FEE5F00201E4E9CDF9EAFE59
:10016000EBFFEF89F0A4FCE5F0CE89F0A42EFFE4CC
:1001700035F0CD89F0A42DFEE435F08067EF4E70A8
:1001800005BD80D780C3EF8BF0A4ACF0EE8BF0A45C
:100190002CFCE435F0F8EF8AF0A42CE5F038FCE410
:1001A00033CB8DF0A42CFCE5F03BF8EE8AF0A42CC8
:1001B000FCE5F038F8E433CF89F0A42CFCE5F03806
:1001C000CF3400CE89F0A42FFFE5F03EFEE433C922
:1001D0008DF0A42EFEE5F039CD8AF0A42FFFE5F0D6
:1001E0003EFEE43DFD33D0E0FB50070BBB000F02A9
:1001F00002B5EC2CFCEF33FFEE33FEED33FD0202D3
:100200008D75F020800E75F010800575F0087D006A
:100210007E007F003392D530D503120354EC334077
:1002200010EF33FFEE33FEED33FDEC33FCD5F0ED94
:1002300022E5F0247EA2D513CC92E7CDCEFF22EDAD
:10024000D2E7CD33EC3392D524814006E4FFFEFDA6
:10025000FC22FCE4CFCECDCC24E0501174FF80ED25
:10026000C3CC13CCCD13CDCE13CECF13CF0470F0AF
:1002700030D5DE020354E9D2E7C933E833F892D52A
:10028000EDD2E7CD33EC33FC5002B2D522EC30E7AF
:10029000100FBF000C0EBE00080DBD00040BEB607C
:1002A00014A2D5EB13FCED92E7FD2274FFFCFDFEDA
:1002B000FF22E480F8A2D574FF13FC7D80E480EF78
:1002C000BB010CE58229F582E5833AF583E02250F3
:1002D00006E92582F8E622BBFE06E92582F8E2223D
:1002E000E58229F582E5833AF583E49322EF8DF0E8
:1002F000A4A8F0CF8CF0A428CE8DF0A42EFE22BCB2
:10030000000BBE0029EF8DF084FFADF022E4CCF8A5
:1003100075F008EF2FFFEE33FEEC33FCEE9DEC980A
:100320004005FCEE9DFE0FD5F0E9E4CEFD22EDF890
:10033000F5F0EE8420D21CFEADF075F008EF2FFF33
:10034000ED33FD4007985006D5F0F222C398FD0F1B
:10035000D5F0EA22C3E49FFFE49EFEE49DFDE49C09
:10036000FC221205F38E088F09AC08AD09E41202D5
:10037000067B0A7AD779A3783C1200FB7B337A9309
:10038000798878C312000A8F0F8E0E8D0D8C0C1297
:10039000060D8E0A8F0BAC0AAD0BE41202067B0A27
:1003A0007AD779A3783C1200FB7B337A93798878EB
:1003B000C312000A8F138E128D118C10AF0FAE0E68
:1003C000AD0DAC0C12023FAB07AA067518057D01F6
:1003D0007F011205B9AF13AE12AD11AC1012023F7E
:1003E000AB07AA067518057D017F020205B9787F63
:1003F000E4F6D8FD758124020435020362E493A378
:10040000F8E493A34003F68001F208DFF48029E4C6
:1004100093A3F85407240CC8C333C4540F4420C812
:10042000834004F456800146F6DFE4800B010204A9
:10043000081020408090066EE47E019360BCA3FF0C
:10044000543F30E509541FFEE493A360010ECF54DE
:10045000C025E060A840B8E493A3FAE493A3F8E4CD
:1004600093A3C8C582C8CAC583CAF0A3C8C582C839
:10047000CAC583CADFE9DEE780BE1524A824A60723
:10048000152415241524A824087601E5242403F84E
:10049000E6A8240808F6A824E4F6A924C3E76480A3
:1004A00094885025A8240808E630E70575210180C6
:1004B00003E4F52112057BA8240808C000E6FF2507
:1004C000E0D000F6A8240680D112055AE520B40138
:1004D0001412050FA82408A900E76009A82408162B
:1004E0001205D680A6E5242404F5242212047A12EB
:1004F00005D67F0112047AE4F5211206278F1EE447
:10050000F5211206278F1D7521011206278F1FC2A4
:10051000A10000000000C2A00000000000D2A10065
:1005200000000000D2A0227F0AEA24FFFDE434FF8D
:10053000FC7E008E198F1A8C1B8D1C7F017E00E4BF
:10054000FBEBC3951CE51B6480F8748098500AACE3
:1005500019AD1A1202ED0B80E822D2A0752001D24B
:10056000A10000000000000000A2A0E433F520007C
:10057000C2A1000000000000000022E5217004C2BA
:10058000A08002D2A000D2A1000000000000000064
:10059000C2A1000000000000000022CFCDCFCECCD1
:1005A000CE1202FF7C007D0A1202FFED2430FFD242
:1005B000A6120655C2A702065B8A168B1712063FC3
:1005C000AA18EAD39400400D120527AC16AD1712F5
:1005D000059B1A80ED22D2A00000000000D2A100ED
:1005E00000000000C2A00000000000C2A100000046
:1005F0000000221205D67F0012047A7F071204EC55
:10060000E51DFE7C00E4251EFFEC3EFE221205D611
:100610007F0012047A7F061204ECE51DFE7C00E4E4
:10062000251EFFEC3EFE22E4FFFEEF25E0FF120553
:100630005AE520B401010F0EBE08EF12057B22AE71
:1006400007BE0104ED148006BE0209ED243F44807C
:10065000FF12066422C2A58F80D2A77F027EEFDE42
:10066000FEDFFC22C2A6120655C2A702065B0121CC
:05067000010120010062
:00000001FF
