:0800000002047BC2B5C2B62266
:10000B000206D7E51DB4020B051AE51A75F0068436
:10001B0085F01AE51D640360030200D27411251AE2
:10002B00F806E511D394634003E4F511E512D3947C
:10003B000C4003751201E51264016023E5126403A1
:10004B00601DE51264056017E51264076011E51287
:10005B006408600BE512640A6005E512B40C09E54F
:10006B0013D3941F4043801EE51264046011E51204
:10007B006406600BE51264096005E512B40B0CE530
:10008B0013D3941E4023E4F513801EE512B402191A
:10009B00E51154037009E513D3941D400C8007E55B
:1000AB0013D3941C4003751301E514D39417400329
:1000BB00751401E515D3943B4003E4F515E516D310
:1000CB00943B4003E4F516E51D640460030201BB99
:1000DB007411251AF816E511B4FF03751163E512B7
:1000EB00B4FF0375120CE51264016023E51264037F
:1000FB00601DE51264056017E51264076011E512D7
:10010B006408600BE512640A6005E512B40C1AE58D
:10011B0013D3941F4009E51394FF5003751301E5A6
:10012B0013F4707475131F806FE51264046011E58E
:10013B00126406600BE51264096005E512B40B1A34
:10014B00E513D3941E4009E51394FF500375130177
:10015B00E513F4704375131E803EE512640270388C
:10016B00E5115403701AE513D3941D4009E513945C
:10017B00FF5003751301E513B4FF1D75131D801894
:10018B00E513D3941C4009E51394FF500375130139
:10019B00E513B4FF0375131CE514B4FF03751401C9
:1001AB00E515B4FF03E4F515E516B4FF03E4F51606
:1001BB00E51A7013E51B700F7BFF7A0779E97D0158
:1001CB007F01120741800FE511FB7A00750C027D50
:1001DB00017F0112079FE51AB40113E51B700F7B1A
:1001EB00FF7A0779E97D047F01120741800FE51241
:1001FB00FB7A00750C027D047F0112079FE51AB490
:10020B000213E51B700F7BFF7A0779E97D077F01EE
:10021B00120741800FE513FB7A00750C027D077FF7
:10022B000112079FE51AB40313E51B700F7BFF7ACE
:10023B000779E97D017F02120741800FE514FB7AF4
:10024B0000750C027D017F0212079FE51AB404139F
:10025B00E51B700F7BFF7A0779E97D047F0212079C
:10026B0041800FE515FB7A00750C027D047F0212AD
:10027B00079FE51AB40511E51B700D7BFF7A077913
:10028B00E97D077F02020741E516FB7A00750C0238
:10029B007D077F0212079F22E4FD7F8E120638E551
:1002AB001175F00A84C454F0FFE51175F00A84EF60
:1002BB007F8C120635E51275F00A84C454F0FFE505
:1002CB001275F00A84EF7F88120635E51375F00A74
:1002DB0084C454F0FFE51375F00A84EF25F0FD7F1D
:1002EB0086120638E51475F00A84C454F0FFE51441
:1002FB0075F00A84EF25F0FD7F84120638E515753D
:10030B00F00A84C454F0FFE51575F00A84EF25F06C
:10031B00FD7F82120638E51675F00A84C454F0FF8F
:10032B00E51675F00A84EF25F0FD7F80120638E59F
:10033B001775F00A84C454F0FFE51775F00A84EFC3
:10034B0025F0FD7F8A1206387D807F8E020638BB32
:10035B00010CE58229F582E5833AF583E02250060C
:10036B00E92582F8E622BBFE06E92582F8E222E5C2
:10037B008229F582E5833AF583E49322EF8DF0A48D
:10038B00A8F0CF8CF0A428CE8DF0A42EFE22BC00BA
:10039B000BBE0029EF8DF084FFADF022E4CCF87595
:1003AB00F008EF2FFFEE33FEEC33FCEE9DEC9840A4
:1003BB0005FCEE9DFE0FD5F0E9E4CEFD22EDF8F540
:1003CB00F0EE8420D21CFEADF075F008EF2FFFEDA0
:1003DB0033FD4007985006D5F0F222C398FD0FD598
:1003EB00F0EA227F8C120689EFC4540F75F00AA431
:1003FB00FEEF540F2EF5117F88120689EFC4540FB0
:10040B0075F00AA4FEEF540F2EF5127F86120689A3
:10041B00EFC4540F75F00AA4FEEF540F2EF5137FA3
:10042B0084120689EFC4540F75F00AA4FEEF540F23
:10043B002EF5147F82120689EFC4540F75F00AA4AF
:10044B00FEEF540F2EF5157F80120689EFC4540F63
:10045B0075F00AA4FEEF540F2EF5167F8A1206894B
:10046B00EFC4540F75F00AA4FEEF540F2EF51722AC
:10047B00787FE4F6D8FD75811D0204C20205DFE426
:10048B0093A3F8E493A34003F68001F208DFF48012
:10049B0029E493A3F85407240CC8C333C4540F4462
:1004AB0020C8834004F456800146F6DFE4800B013C
:1004BB0002040810204080900821E47E019360BC68
:1004CB00A3FF543F30E509541FFEE493A360010ED4
:1004DB00CF54C025E060A840B8E493A3FAE493A3FB
:1004EB00F8E493A3C8C582C8CAC583CAF0A3C8C51C
:1004FB0082C8CAC583CADFE9DEE780BE1203EE7B82
:10050B00FF7A0779EC7D017F011207417BFF7A07A8
:10051B0079F57D017F02120741E511FB7A00750C1D
:10052B00027D017F0112079FE512FB7A00750C0219
:10053B007D047F0112079FE513FB7A00750C027D8A
:10054B00077F0112079FE514FB7A00750C027D01F2
:10055B007F0212079FE515FB7A00750C027D047F65
:10056B000212079FE516FB7A00750C027D077F02CE
:10057B0002079FE4F50820B1137F14FE12078230A7
:10058B00B1FD7F147E0012078275080120B0147F25
:10059B00147E0012078230B0FD7F147E001207829A
:1005AB0075080220B2147F147E0012078230B2FD50
:1005BB007F147E0012078275080320B3147F147E0C
:1005CB000012078230B3FD7F147E0012078275087C
:1005DB0004AF08221207FE1200037BFF7A0779ECA7
:1005EB007D017F011207417BFF7A0779F57D017F42
:1005FB00021207411202A31207BC12057E8F1DE5E2
:10060B001DB40114E51C7005751C01800BE51CB4B1
:10061B000106E4F51C1202A3E51C1460080470DA51
:10062B0012050780D512000E80D025F0FDA907D248
:10063B00B5E4FB74017E00A803088005C333CE33F9
:10064B00CED8F9FFE9F582EF558224FF92B4D2B6EA
:10065B00C2B60BBB08DDE4FB74017E00A803088067
:10066B0005C333CE33CED8F9FFEDF582EF55822497
:10067B00FF92B4D2B6C2B60BBB08DDC2B522AD0732
:10068B00E4F9430501D2B5FB74017E00A803088091
:10069B0005C333CE33CED8F9FFEDF582EF55822467
:1006AB00FF92B4C2B6D2B60BBB08DDE4FBD2B6C226
:1006BB00B630B40D7401A803088002C333D8FC42D2
:1006CB00010BBB08E8C2B5C2B4AF0122C0E0C0D079
:1006DB0075D000C007758A18758CFC0519E5197063
:1006EB00020518C394F4E5189401401075180075B1
:1006FB001900E51B7F0070027F018F1BD007D0D044
:10070B00D0E0327F0AEA24FFFDE434FFFC7E008E4A
:10071B000D8F0E8C0F8D107F017E00E4FBEBC395CC
:10072B0010E50F6480F8748098500AAC0DAD0E1272
:10073B0003870B80E8228B088A09890A1207D3E406
:10074B00FDAB08AA09A90A8D8275830012035AFF13
:10075B0060061207780D80E922CFCDCFCECCCE121A
:10076B0003997C007D0A120399ED2430FFD2A61267
:10077B000812C2A7020818D3EF9400EE940040139E
:10078B00750902750AEFD50AFDD509FAEF1F70E757
:10079B001E80E4228A0A8B0B1207D3AA0CEAD3948D
:1007AB0000400D12070EAC0AAD0B1207641A80ED58
:1007BB00225389F0438901758ACD758CD4C28DD2B1
:1007CB008CD2A9D2AFC2B922AE07BE0104ED148000
:1007DB0006BE0209ED243F4480FF12082E22202082
:1007EB000020202D20202D20200020203A20203AF0
:1007FB002020007F3812082E7F0C12082E7F061245
:10080B00082E7F0102082EC2A58F80D2A77F027E01
:10081B00EFDEFEDFFC22071116020B1113000501A0
:0D082B001B0000C2A6120812C2A702081886
:00000001FF
